{
	"contracts/GasEstimator.sol": {
		"GasEstimator": {
			"abi": [
				{
					"inputs": [
						{
							"internalType": "address",
							"name": "_to",
							"type": "address"
						},
						{
							"internalType": "bytes",
							"name": "_data",
							"type": "bytes"
						}
					],
					"name": "estimate",
					"outputs": [
						{
							"internalType": "bool",
							"name": "success",
							"type": "bool"
						},
						{
							"internalType": "bytes",
							"name": "result",
							"type": "bytes"
						},
						{
							"internalType": "uint256",
							"name": "gas",
							"type": "uint256"
						}
					],
					"stateMutability": "nonpayable",
					"type": "function"
				}
			],
			"devdoc": {
				"kind": "dev",
				"methods": {},
				"version": 1
			},
			"evm": {
				"assembly": "    /* \"contracts/GasEstimator.sol\":123:488  contract GasEstimator {... */\n  mstore(0x40, 0x80)\n  callvalue\n  dup1\n  iszero\n  tag_1\n  jumpi\n  0x00\n  dup1\n  revert\ntag_1:\n  pop\n  dataSize(sub_0)\n  dup1\n  dataOffset(sub_0)\n  0x00\n  codecopy\n  0x00\n  return\nstop\n\nsub_0: assembly {\n        /* \"contracts/GasEstimator.sol\":123:488  contract GasEstimator {... */\n      mstore(0x40, 0x80)\n      callvalue\n      dup1\n      iszero\n      tag_1\n      jumpi\n      0x00\n      dup1\n      revert\n    tag_1:\n      pop\n      jumpi(tag_2, lt(calldatasize, 0x04))\n      shr(0xe0, calldataload(0x00))\n      dup1\n      0x0eb34cd3\n      eq\n      tag_3\n      jumpi\n    tag_2:\n      0x00\n      dup1\n      revert\n        /* \"contracts/GasEstimator.sol\":152:485  function estimate(... */\n    tag_3:\n      tag_4\n      0x04\n      dup1\n      calldatasize\n      sub\n      dup2\n      add\n      swap1\n      tag_5\n      swap2\n      swap1\n      tag_6\n      jump\t// in\n    tag_5:\n      tag_7\n      jump\t// in\n    tag_4:\n      mload(0x40)\n      tag_8\n      swap4\n      swap3\n      swap2\n      swap1\n      tag_9\n      jump\t// in\n    tag_8:\n      mload(0x40)\n      dup1\n      swap2\n      sub\n      swap1\n      return\n    tag_7:\n        /* \"contracts/GasEstimator.sol\":248:260  bool success */\n      0x00\n        /* \"contracts/GasEstimator.sol\":262:281  bytes memory result */\n      0x60\n        /* \"contracts/GasEstimator.sol\":283:294  uint256 gas */\n      0x00\n        /* \"contracts/GasEstimator.sol\":335:353  uint256 initialGas */\n      dup1\n        /* \"contracts/GasEstimator.sol\":356:365  gasleft() */\n      gas\n        /* \"contracts/GasEstimator.sol\":335:365  uint256 initialGas = gasleft() */\n      swap1\n      pop\n        /* \"contracts/GasEstimator.sol\":396:399  _to */\n      dup7\n        /* \"contracts/GasEstimator.sol\":396:404  _to.call */\n      0xffffffffffffffffffffffffffffffffffffffff\n      and\n        /* \"contracts/GasEstimator.sol\":405:410  _data */\n      dup7\n      dup7\n        /* \"contracts/GasEstimator.sol\":396:411  _to.call(_data) */\n      mload(0x40)\n      tag_11\n      swap3\n      swap2\n      swap1\n      tag_12\n      jump\t// in\n    tag_11:\n      0x00\n      mload(0x40)\n      dup1\n      dup4\n      sub\n      dup2\n      0x00\n      dup7\n      gas\n      call\n      swap2\n      pop\n      pop\n      returndatasize\n      dup1\n      0x00\n      dup2\n      eq\n      tag_15\n      jumpi\n      mload(0x40)\n      swap2\n      pop\n      and(add(returndatasize, 0x3f), not(0x1f))\n      dup3\n      add\n      0x40\n      mstore\n      returndatasize\n      dup3\n      mstore\n      returndatasize\n      0x00\n      0x20\n      dup5\n      add\n      returndatacopy\n      jump(tag_14)\n    tag_15:\n      0x60\n      swap2\n      pop\n    tag_14:\n      pop\n        /* \"contracts/GasEstimator.sol\":376:411  (success, result) = _to.call(_data) */\n      dup1\n      swap5\n      pop\n      dup2\n      swap6\n      pop\n      pop\n      pop\n        /* \"contracts/GasEstimator.sol\":441:450  gasleft() */\n      gas\n        /* \"contracts/GasEstimator.sol\":428:438  initialGas */\n      dup2\n        /* \"contracts/GasEstimator.sol\":428:450  initialGas - gasleft() */\n      tag_16\n      swap2\n      swap1\n      tag_17\n      jump\t// in\n    tag_16:\n        /* \"contracts/GasEstimator.sol\":422:450  gas = initialGas - gasleft() */\n      swap2\n      pop\n        /* \"contracts/GasEstimator.sol\":296:485  {... */\n      pop\n        /* \"contracts/GasEstimator.sol\":152:485  function estimate(... */\n      swap4\n      pop\n      swap4\n      pop\n      swap4\n      swap1\n      pop\n      jump\t// out\n        /* \"#utility.yul\":88:205   */\n    tag_19:\n        /* \"#utility.yul\":197:198   */\n      0x00\n        /* \"#utility.yul\":194:195   */\n      dup1\n        /* \"#utility.yul\":187:199   */\n      revert\n        /* \"#utility.yul\":211:328   */\n    tag_20:\n        /* \"#utility.yul\":320:321   */\n      0x00\n        /* \"#utility.yul\":317:318   */\n      dup1\n        /* \"#utility.yul\":310:322   */\n      revert\n        /* \"#utility.yul\":334:460   */\n    tag_21:\n        /* \"#utility.yul\":371:378   */\n      0x00\n        /* \"#utility.yul\":411:453   */\n      0xffffffffffffffffffffffffffffffffffffffff\n        /* \"#utility.yul\":404:409   */\n      dup3\n        /* \"#utility.yul\":400:454   */\n      and\n        /* \"#utility.yul\":389:454   */\n      swap1\n      pop\n        /* \"#utility.yul\":334:460   */\n      swap2\n      swap1\n      pop\n      jump\t// out\n        /* \"#utility.yul\":466:562   */\n    tag_22:\n        /* \"#utility.yul\":503:510   */\n      0x00\n        /* \"#utility.yul\":532:556   */\n      tag_48\n        /* \"#utility.yul\":550:555   */\n      dup3\n        /* \"#utility.yul\":532:556   */\n      tag_21\n      jump\t// in\n    tag_48:\n        /* \"#utility.yul\":521:556   */\n      swap1\n      pop\n        /* \"#utility.yul\":466:562   */\n      swap2\n      swap1\n      pop\n      jump\t// out\n        /* \"#utility.yul\":568:690   */\n    tag_23:\n        /* \"#utility.yul\":641:665   */\n      tag_50\n        /* \"#utility.yul\":659:664   */\n      dup2\n        /* \"#utility.yul\":641:665   */\n      tag_22\n      jump\t// in\n    tag_50:\n        /* \"#utility.yul\":634:639   */\n      dup2\n        /* \"#utility.yul\":631:666   */\n      eq\n        /* \"#utility.yul\":621:684   */\n      tag_51\n      jumpi\n        /* \"#utility.yul\":680:681   */\n      0x00\n        /* \"#utility.yul\":677:678   */\n      dup1\n        /* \"#utility.yul\":670:682   */\n      revert\n        /* \"#utility.yul\":621:684   */\n    tag_51:\n        /* \"#utility.yul\":568:690   */\n      pop\n      jump\t// out\n        /* \"#utility.yul\":696:835   */\n    tag_24:\n        /* \"#utility.yul\":742:747   */\n      0x00\n        /* \"#utility.yul\":780:786   */\n      dup2\n        /* \"#utility.yul\":767:787   */\n      calldataload\n        /* \"#utility.yul\":758:787   */\n      swap1\n      pop\n        /* \"#utility.yul\":796:829   */\n      tag_53\n        /* \"#utility.yul\":823:828   */\n      dup2\n        /* \"#utility.yul\":796:829   */\n      tag_23\n      jump\t// in\n    tag_53:\n        /* \"#utility.yul\":696:835   */\n      swap3\n      swap2\n      pop\n      pop\n      jump\t// out\n        /* \"#utility.yul\":841:958   */\n    tag_25:\n        /* \"#utility.yul\":950:951   */\n      0x00\n        /* \"#utility.yul\":947:948   */\n      dup1\n        /* \"#utility.yul\":940:952   */\n      revert\n        /* \"#utility.yul\":964:1081   */\n    tag_26:\n        /* \"#utility.yul\":1073:1074   */\n      0x00\n        /* \"#utility.yul\":1070:1071   */\n      dup1\n        /* \"#utility.yul\":1063:1075   */\n      revert\n        /* \"#utility.yul\":1087:1204   */\n    tag_27:\n        /* \"#utility.yul\":1196:1197   */\n      0x00\n        /* \"#utility.yul\":1193:1194   */\n      dup1\n        /* \"#utility.yul\":1186:1198   */\n      revert\n        /* \"#utility.yul\":1223:1775   */\n    tag_28:\n        /* \"#utility.yul\":1280:1288   */\n      0x00\n        /* \"#utility.yul\":1290:1296   */\n      dup1\n        /* \"#utility.yul\":1340:1343   */\n      dup4\n        /* \"#utility.yul\":1333:1337   */\n      0x1f\n        /* \"#utility.yul\":1325:1331   */\n      dup5\n        /* \"#utility.yul\":1321:1338   */\n      add\n        /* \"#utility.yul\":1317:1344   */\n      slt\n        /* \"#utility.yul\":1307:1429   */\n      tag_58\n      jumpi\n        /* \"#utility.yul\":1348:1427   */\n      tag_59\n      tag_25\n      jump\t// in\n    tag_59:\n        /* \"#utility.yul\":1307:1429   */\n    tag_58:\n        /* \"#utility.yul\":1461:1467   */\n      dup3\n        /* \"#utility.yul\":1448:1468   */\n      calldataload\n        /* \"#utility.yul\":1438:1468   */\n      swap1\n      pop\n        /* \"#utility.yul\":1491:1509   */\n      0xffffffffffffffff\n        /* \"#utility.yul\":1483:1489   */\n      dup2\n        /* \"#utility.yul\":1480:1510   */\n      gt\n        /* \"#utility.yul\":1477:1594   */\n      iszero\n      tag_60\n      jumpi\n        /* \"#utility.yul\":1513:1592   */\n      tag_61\n      tag_26\n      jump\t// in\n    tag_61:\n        /* \"#utility.yul\":1477:1594   */\n    tag_60:\n        /* \"#utility.yul\":1627:1631   */\n      0x20\n        /* \"#utility.yul\":1619:1625   */\n      dup4\n        /* \"#utility.yul\":1615:1632   */\n      add\n        /* \"#utility.yul\":1603:1632   */\n      swap2\n      pop\n        /* \"#utility.yul\":1681:1684   */\n      dup4\n        /* \"#utility.yul\":1673:1677   */\n      0x01\n        /* \"#utility.yul\":1665:1671   */\n      dup3\n        /* \"#utility.yul\":1661:1678   */\n      mul\n        /* \"#utility.yul\":1651:1659   */\n      dup4\n        /* \"#utility.yul\":1647:1679   */\n      add\n        /* \"#utility.yul\":1644:1685   */\n      gt\n        /* \"#utility.yul\":1641:1769   */\n      iszero\n      tag_62\n      jumpi\n        /* \"#utility.yul\":1688:1767   */\n      tag_63\n      tag_27\n      jump\t// in\n    tag_63:\n        /* \"#utility.yul\":1641:1769   */\n    tag_62:\n        /* \"#utility.yul\":1223:1775   */\n      swap3\n      pop\n      swap3\n      swap1\n      pop\n      jump\t// out\n        /* \"#utility.yul\":1781:2453   */\n    tag_6:\n        /* \"#utility.yul\":1860:1866   */\n      0x00\n        /* \"#utility.yul\":1868:1874   */\n      dup1\n        /* \"#utility.yul\":1876:1882   */\n      0x00\n        /* \"#utility.yul\":1925:1927   */\n      0x40\n        /* \"#utility.yul\":1913:1922   */\n      dup5\n        /* \"#utility.yul\":1904:1911   */\n      dup7\n        /* \"#utility.yul\":1900:1923   */\n      sub\n        /* \"#utility.yul\":1896:1928   */\n      slt\n        /* \"#utility.yul\":1893:2012   */\n      iszero\n      tag_65\n      jumpi\n        /* \"#utility.yul\":1931:2010   */\n      tag_66\n      tag_19\n      jump\t// in\n    tag_66:\n        /* \"#utility.yul\":1893:2012   */\n    tag_65:\n        /* \"#utility.yul\":2051:2052   */\n      0x00\n        /* \"#utility.yul\":2076:2129   */\n      tag_67\n        /* \"#utility.yul\":2121:2128   */\n      dup7\n        /* \"#utility.yul\":2112:2118   */\n      dup3\n        /* \"#utility.yul\":2101:2110   */\n      dup8\n        /* \"#utility.yul\":2097:2119   */\n      add\n        /* \"#utility.yul\":2076:2129   */\n      tag_24\n      jump\t// in\n    tag_67:\n        /* \"#utility.yul\":2066:2129   */\n      swap4\n      pop\n        /* \"#utility.yul\":2022:2139   */\n      pop\n        /* \"#utility.yul\":2206:2208   */\n      0x20\n        /* \"#utility.yul\":2195:2204   */\n      dup5\n        /* \"#utility.yul\":2191:2209   */\n      add\n        /* \"#utility.yul\":2178:2210   */\n      calldataload\n        /* \"#utility.yul\":2237:2255   */\n      0xffffffffffffffff\n        /* \"#utility.yul\":2229:2235   */\n      dup2\n        /* \"#utility.yul\":2226:2256   */\n      gt\n        /* \"#utility.yul\":2223:2340   */\n      iszero\n      tag_68\n      jumpi\n        /* \"#utility.yul\":2259:2338   */\n      tag_69\n      tag_20\n      jump\t// in\n    tag_69:\n        /* \"#utility.yul\":2223:2340   */\n    tag_68:\n        /* \"#utility.yul\":2372:2436   */\n      tag_70\n        /* \"#utility.yul\":2428:2435   */\n      dup7\n        /* \"#utility.yul\":2419:2425   */\n      dup3\n        /* \"#utility.yul\":2408:2417   */\n      dup8\n        /* \"#utility.yul\":2404:2426   */\n      add\n        /* \"#utility.yul\":2372:2436   */\n      tag_28\n      jump\t// in\n    tag_70:\n        /* \"#utility.yul\":2354:2436   */\n      swap3\n      pop\n      swap3\n      pop\n        /* \"#utility.yul\":2149:2446   */\n      pop\n        /* \"#utility.yul\":1781:2453   */\n      swap3\n      pop\n      swap3\n      pop\n      swap3\n      jump\t// out\n        /* \"#utility.yul\":2459:2549   */\n    tag_29:\n        /* \"#utility.yul\":2493:2500   */\n      0x00\n        /* \"#utility.yul\":2536:2541   */\n      dup2\n        /* \"#utility.yul\":2529:2542   */\n      iszero\n        /* \"#utility.yul\":2522:2543   */\n      iszero\n        /* \"#utility.yul\":2511:2543   */\n      swap1\n      pop\n        /* \"#utility.yul\":2459:2549   */\n      swap2\n      swap1\n      pop\n      jump\t// out\n        /* \"#utility.yul\":2555:2664   */\n    tag_30:\n        /* \"#utility.yul\":2636:2657   */\n      tag_73\n        /* \"#utility.yul\":2651:2656   */\n      dup2\n        /* \"#utility.yul\":2636:2657   */\n      tag_29\n      jump\t// in\n    tag_73:\n        /* \"#utility.yul\":2631:2634   */\n      dup3\n        /* \"#utility.yul\":2624:2658   */\n      mstore\n        /* \"#utility.yul\":2555:2664   */\n      pop\n      pop\n      jump\t// out\n        /* \"#utility.yul\":2670:2768   */\n    tag_31:\n        /* \"#utility.yul\":2721:2727   */\n      0x00\n        /* \"#utility.yul\":2755:2760   */\n      dup2\n        /* \"#utility.yul\":2749:2761   */\n      mload\n        /* \"#utility.yul\":2739:2761   */\n      swap1\n      pop\n        /* \"#utility.yul\":2670:2768   */\n      swap2\n      swap1\n      pop\n      jump\t// out\n        /* \"#utility.yul\":2774:2942   */\n    tag_32:\n        /* \"#utility.yul\":2857:2868   */\n      0x00\n        /* \"#utility.yul\":2891:2897   */\n      dup3\n        /* \"#utility.yul\":2886:2889   */\n      dup3\n        /* \"#utility.yul\":2879:2898   */\n      mstore\n        /* \"#utility.yul\":2931:2935   */\n      0x20\n        /* \"#utility.yul\":2926:2929   */\n      dup3\n        /* \"#utility.yul\":2922:2936   */\n      add\n        /* \"#utility.yul\":2907:2936   */\n      swap1\n      pop\n        /* \"#utility.yul\":2774:2942   */\n      swap3\n      swap2\n      pop\n      pop\n      jump\t// out\n        /* \"#utility.yul\":2948:3194   */\n    tag_33:\n        /* \"#utility.yul\":3029:3030   */\n      0x00\n        /* \"#utility.yul\":3039:3152   */\n    tag_77:\n        /* \"#utility.yul\":3053:3059   */\n      dup4\n        /* \"#utility.yul\":3050:3051   */\n      dup2\n        /* \"#utility.yul\":3047:3060   */\n      lt\n        /* \"#utility.yul\":3039:3152   */\n      iszero\n      tag_79\n      jumpi\n        /* \"#utility.yul\":3138:3139   */\n      dup1\n        /* \"#utility.yul\":3133:3136   */\n      dup3\n        /* \"#utility.yul\":3129:3140   */\n      add\n        /* \"#utility.yul\":3123:3141   */\n      mload\n        /* \"#utility.yul\":3119:3120   */\n      dup2\n        /* \"#utility.yul\":3114:3117   */\n      dup5\n        /* \"#utility.yul\":3110:3121   */\n      add\n        /* \"#utility.yul\":3103:3142   */\n      mstore\n        /* \"#utility.yul\":3075:3077   */\n      0x20\n        /* \"#utility.yul\":3072:3073   */\n      dup2\n        /* \"#utility.yul\":3068:3078   */\n      add\n        /* \"#utility.yul\":3063:3078   */\n      swap1\n      pop\n        /* \"#utility.yul\":3039:3152   */\n      jump(tag_77)\n    tag_79:\n        /* \"#utility.yul\":3186:3187   */\n      0x00\n        /* \"#utility.yul\":3177:3183   */\n      dup5\n        /* \"#utility.yul\":3172:3175   */\n      dup5\n        /* \"#utility.yul\":3168:3184   */\n      add\n        /* \"#utility.yul\":3161:3188   */\n      mstore\n        /* \"#utility.yul\":3010:3194   */\n      pop\n        /* \"#utility.yul\":2948:3194   */\n      pop\n      pop\n      pop\n      jump\t// out\n        /* \"#utility.yul\":3200:3302   */\n    tag_34:\n        /* \"#utility.yul\":3241:3247   */\n      0x00\n        /* \"#utility.yul\":3292:3294   */\n      0x1f\n        /* \"#utility.yul\":3288:3295   */\n      not\n        /* \"#utility.yul\":3283:3285   */\n      0x1f\n        /* \"#utility.yul\":3276:3281   */\n      dup4\n        /* \"#utility.yul\":3272:3286   */\n      add\n        /* \"#utility.yul\":3268:3296   */\n      and\n        /* \"#utility.yul\":3258:3296   */\n      swap1\n      pop\n        /* \"#utility.yul\":3200:3302   */\n      swap2\n      swap1\n      pop\n      jump\t// out\n        /* \"#utility.yul\":3308:3681   */\n    tag_35:\n        /* \"#utility.yul\":3394:3397   */\n      0x00\n        /* \"#utility.yul\":3422:3460   */\n      tag_82\n        /* \"#utility.yul\":3454:3459   */\n      dup3\n        /* \"#utility.yul\":3422:3460   */\n      tag_31\n      jump\t// in\n    tag_82:\n        /* \"#utility.yul\":3476:3546   */\n      tag_83\n        /* \"#utility.yul\":3539:3545   */\n      dup2\n        /* \"#utility.yul\":3534:3537   */\n      dup6\n        /* \"#utility.yul\":3476:3546   */\n      tag_32\n      jump\t// in\n    tag_83:\n        /* \"#utility.yul\":3469:3546   */\n      swap4\n      pop\n        /* \"#utility.yul\":3555:3620   */\n      tag_84\n        /* \"#utility.yul\":3613:3619   */\n      dup2\n        /* \"#utility.yul\":3608:3611   */\n      dup6\n        /* \"#utility.yul\":3601:3605   */\n      0x20\n        /* \"#utility.yul\":3594:3599   */\n      dup7\n        /* \"#utility.yul\":3590:3606   */\n      add\n        /* \"#utility.yul\":3555:3620   */\n      tag_33\n      jump\t// in\n    tag_84:\n        /* \"#utility.yul\":3645:3674   */\n      tag_85\n        /* \"#utility.yul\":3667:3673   */\n      dup2\n        /* \"#utility.yul\":3645:3674   */\n      tag_34\n      jump\t// in\n    tag_85:\n        /* \"#utility.yul\":3640:3643   */\n      dup5\n        /* \"#utility.yul\":3636:3675   */\n      add\n        /* \"#utility.yul\":3629:3675   */\n      swap2\n      pop\n        /* \"#utility.yul\":3398:3681   */\n      pop\n        /* \"#utility.yul\":3308:3681   */\n      swap3\n      swap2\n      pop\n      pop\n      jump\t// out\n        /* \"#utility.yul\":3687:3764   */\n    tag_36:\n        /* \"#utility.yul\":3724:3731   */\n      0x00\n        /* \"#utility.yul\":3753:3758   */\n      dup2\n        /* \"#utility.yul\":3742:3758   */\n      swap1\n      pop\n        /* \"#utility.yul\":3687:3764   */\n      swap2\n      swap1\n      pop\n      jump\t// out\n        /* \"#utility.yul\":3770:3888   */\n    tag_37:\n        /* \"#utility.yul\":3857:3881   */\n      tag_88\n        /* \"#utility.yul\":3875:3880   */\n      dup2\n        /* \"#utility.yul\":3857:3881   */\n      tag_36\n      jump\t// in\n    tag_88:\n        /* \"#utility.yul\":3852:3855   */\n      dup3\n        /* \"#utility.yul\":3845:3882   */\n      mstore\n        /* \"#utility.yul\":3770:3888   */\n      pop\n      pop\n      jump\t// out\n        /* \"#utility.yul\":3894:4411   */\n    tag_9:\n        /* \"#utility.yul\":4055:4059   */\n      0x00\n        /* \"#utility.yul\":4093:4095   */\n      0x60\n        /* \"#utility.yul\":4082:4091   */\n      dup3\n        /* \"#utility.yul\":4078:4096   */\n      add\n        /* \"#utility.yul\":4070:4096   */\n      swap1\n      pop\n        /* \"#utility.yul\":4106:4171   */\n      tag_90\n        /* \"#utility.yul\":4168:4169   */\n      0x00\n        /* \"#utility.yul\":4157:4166   */\n      dup4\n        /* \"#utility.yul\":4153:4170   */\n      add\n        /* \"#utility.yul\":4144:4150   */\n      dup7\n        /* \"#utility.yul\":4106:4171   */\n      tag_30\n      jump\t// in\n    tag_90:\n        /* \"#utility.yul\":4218:4227   */\n      dup2\n        /* \"#utility.yul\":4212:4216   */\n      dup2\n        /* \"#utility.yul\":4208:4228   */\n      sub\n        /* \"#utility.yul\":4203:4205   */\n      0x20\n        /* \"#utility.yul\":4192:4201   */\n      dup4\n        /* \"#utility.yul\":4188:4206   */\n      add\n        /* \"#utility.yul\":4181:4229   */\n      mstore\n        /* \"#utility.yul\":4246:4322   */\n      tag_91\n        /* \"#utility.yul\":4317:4321   */\n      dup2\n        /* \"#utility.yul\":4308:4314   */\n      dup6\n        /* \"#utility.yul\":4246:4322   */\n      tag_35\n      jump\t// in\n    tag_91:\n        /* \"#utility.yul\":4238:4322   */\n      swap1\n      pop\n        /* \"#utility.yul\":4332:4404   */\n      tag_92\n        /* \"#utility.yul\":4400:4402   */\n      0x40\n        /* \"#utility.yul\":4389:4398   */\n      dup4\n        /* \"#utility.yul\":4385:4403   */\n      add\n        /* \"#utility.yul\":4376:4382   */\n      dup5\n        /* \"#utility.yul\":4332:4404   */\n      tag_37\n      jump\t// in\n    tag_92:\n        /* \"#utility.yul\":3894:4411   */\n      swap5\n      swap4\n      pop\n      pop\n      pop\n      pop\n      jump\t// out\n        /* \"#utility.yul\":4417:4564   */\n    tag_38:\n        /* \"#utility.yul\":4518:4529   */\n      0x00\n        /* \"#utility.yul\":4555:4558   */\n      dup2\n        /* \"#utility.yul\":4540:4558   */\n      swap1\n      pop\n        /* \"#utility.yul\":4417:4564   */\n      swap3\n      swap2\n      pop\n      pop\n      jump\t// out\n        /* \"#utility.yul\":4570:4716   */\n    tag_39:\n        /* \"#utility.yul\":4667:4673   */\n      dup3\n        /* \"#utility.yul\":4662:4665   */\n      dup2\n        /* \"#utility.yul\":4657:4660   */\n      dup4\n        /* \"#utility.yul\":4644:4674   */\n      calldatacopy\n        /* \"#utility.yul\":4708:4709   */\n      0x00\n        /* \"#utility.yul\":4699:4705   */\n      dup4\n        /* \"#utility.yul\":4694:4697   */\n      dup4\n        /* \"#utility.yul\":4690:4706   */\n      add\n        /* \"#utility.yul\":4683:4710   */\n      mstore\n        /* \"#utility.yul\":4570:4716   */\n      pop\n      pop\n      pop\n      jump\t// out\n        /* \"#utility.yul\":4744:5071   */\n    tag_40:\n        /* \"#utility.yul\":4858:4861   */\n      0x00\n        /* \"#utility.yul\":4879:4967   */\n      tag_96\n        /* \"#utility.yul\":4960:4966   */\n      dup4\n        /* \"#utility.yul\":4955:4958   */\n      dup6\n        /* \"#utility.yul\":4879:4967   */\n      tag_38\n      jump\t// in\n    tag_96:\n        /* \"#utility.yul\":4872:4967   */\n      swap4\n      pop\n        /* \"#utility.yul\":4977:5033   */\n      tag_97\n        /* \"#utility.yul\":5026:5032   */\n      dup4\n        /* \"#utility.yul\":5021:5024   */\n      dup6\n        /* \"#utility.yul\":5014:5019   */\n      dup5\n        /* \"#utility.yul\":4977:5033   */\n      tag_39\n      jump\t// in\n    tag_97:\n        /* \"#utility.yul\":5058:5064   */\n      dup3\n        /* \"#utility.yul\":5053:5056   */\n      dup5\n        /* \"#utility.yul\":5049:5065   */\n      add\n        /* \"#utility.yul\":5042:5065   */\n      swap1\n      pop\n        /* \"#utility.yul\":4744:5071   */\n      swap4\n      swap3\n      pop\n      pop\n      pop\n      jump\t// out\n        /* \"#utility.yul\":5077:5368   */\n    tag_12:\n        /* \"#utility.yul\":5217:5220   */\n      0x00\n        /* \"#utility.yul\":5239:5342   */\n      tag_99\n        /* \"#utility.yul\":5338:5341   */\n      dup3\n        /* \"#utility.yul\":5329:5335   */\n      dup5\n        /* \"#utility.yul\":5321:5327   */\n      dup7\n        /* \"#utility.yul\":5239:5342   */\n      tag_40\n      jump\t// in\n    tag_99:\n        /* \"#utility.yul\":5232:5342   */\n      swap2\n      pop\n        /* \"#utility.yul\":5359:5362   */\n      dup2\n        /* \"#utility.yul\":5352:5362   */\n      swap1\n      pop\n        /* \"#utility.yul\":5077:5368   */\n      swap4\n      swap3\n      pop\n      pop\n      pop\n      jump\t// out\n        /* \"#utility.yul\":5374:5554   */\n    tag_41:\n        /* \"#utility.yul\":5422:5499   */\n      0x4e487b7100000000000000000000000000000000000000000000000000000000\n        /* \"#utility.yul\":5419:5420   */\n      0x00\n        /* \"#utility.yul\":5412:5500   */\n      mstore\n        /* \"#utility.yul\":5519:5523   */\n      0x11\n        /* \"#utility.yul\":5516:5517   */\n      0x04\n        /* \"#utility.yul\":5509:5524   */\n      mstore\n        /* \"#utility.yul\":5543:5547   */\n      0x24\n        /* \"#utility.yul\":5540:5541   */\n      0x00\n        /* \"#utility.yul\":5533:5548   */\n      revert\n        /* \"#utility.yul\":5560:5754   */\n    tag_17:\n        /* \"#utility.yul\":5600:5604   */\n      0x00\n        /* \"#utility.yul\":5620:5640   */\n      tag_102\n        /* \"#utility.yul\":5638:5639   */\n      dup3\n        /* \"#utility.yul\":5620:5640   */\n      tag_36\n      jump\t// in\n    tag_102:\n        /* \"#utility.yul\":5615:5640   */\n      swap2\n      pop\n        /* \"#utility.yul\":5654:5674   */\n      tag_103\n        /* \"#utility.yul\":5672:5673   */\n      dup4\n        /* \"#utility.yul\":5654:5674   */\n      tag_36\n      jump\t// in\n    tag_103:\n        /* \"#utility.yul\":5649:5674   */\n      swap3\n      pop\n        /* \"#utility.yul\":5698:5699   */\n      dup3\n        /* \"#utility.yul\":5695:5696   */\n      dup3\n        /* \"#utility.yul\":5691:5700   */\n      sub\n        /* \"#utility.yul\":5683:5700   */\n      swap1\n      pop\n        /* \"#utility.yul\":5722:5723   */\n      dup2\n        /* \"#utility.yul\":5716:5720   */\n      dup2\n        /* \"#utility.yul\":5713:5724   */\n      gt\n        /* \"#utility.yul\":5710:5747   */\n      iszero\n      tag_104\n      jumpi\n        /* \"#utility.yul\":5727:5745   */\n      tag_105\n      tag_41\n      jump\t// in\n    tag_105:\n        /* \"#utility.yul\":5710:5747   */\n    tag_104:\n        /* \"#utility.yul\":5560:5754   */\n      swap3\n      swap2\n      pop\n      pop\n      jump\t// out\n\n    auxdata: 0xa2646970667358221220576d41a0cc1c3304734a9910c348d2e0def423b341624dfee40cb7bdc0d50ca964736f6c63430008180033\n}\n",
				"bytecode": {
					"linkReferences": {},
					"object": "608060405234801561000f575f80fd5b506103ef8061001d5f395ff3fe608060405234801561000f575f80fd5b5060043610610029575f3560e01c80630eb34cd31461002d575b5f80fd5b610047600480360381019061004291906101b0565b61005f565b604051610056939291906102c9565b60405180910390f35b5f60605f805a90508673ffffffffffffffffffffffffffffffffffffffff16868660405161008e929190610341565b5f604051808303815f865af19150503d805f81146100c7576040519150601f19603f3d011682016040523d82523d5f602084013e6100cc565b606091505b5080945081955050505a816100e19190610386565b91505093509350939050565b5f80fd5b5f80fd5b5f73ffffffffffffffffffffffffffffffffffffffff82169050919050565b5f61011e826100f5565b9050919050565b61012e81610114565b8114610138575f80fd5b50565b5f8135905061014981610125565b92915050565b5f80fd5b5f80fd5b5f80fd5b5f8083601f8401126101705761016f61014f565b5b8235905067ffffffffffffffff81111561018d5761018c610153565b5b6020830191508360018202830111156101a9576101a8610157565b5b9250929050565b5f805f604084860312156101c7576101c66100ed565b5b5f6101d48682870161013b565b935050602084013567ffffffffffffffff8111156101f5576101f46100f1565b5b6102018682870161015b565b92509250509250925092565b5f8115159050919050565b6102218161020d565b82525050565b5f81519050919050565b5f82825260208201905092915050565b5f5b8381101561025e578082015181840152602081019050610243565b5f8484015250505050565b5f601f19601f8301169050919050565b5f61028382610227565b61028d8185610231565b935061029d818560208601610241565b6102a681610269565b840191505092915050565b5f819050919050565b6102c3816102b1565b82525050565b5f6060820190506102dc5f830186610218565b81810360208301526102ee8185610279565b90506102fd60408301846102ba565b949350505050565b5f81905092915050565b828183375f83830152505050565b5f6103288385610305565b935061033583858461030f565b82840190509392505050565b5f61034d82848661031d565b91508190509392505050565b7f4e487b71000000000000000000000000000000000000000000000000000000005f52601160045260245ffd5b5f610390826102b1565b915061039b836102b1565b92508282039050818111156103b3576103b2610359565b5b9291505056fea2646970667358221220576d41a0cc1c3304734a9910c348d2e0def423b341624dfee40cb7bdc0d50ca964736f6c63430008180033",
					"opcodes": "PUSH1 0x80 PUSH1 0x40 MSTORE CALLVALUE DUP1 ISZERO PUSH2 0xF JUMPI PUSH0 DUP1 REVERT JUMPDEST POP PUSH2 0x3EF DUP1 PUSH2 0x1D PUSH0 CODECOPY PUSH0 RETURN INVALID PUSH1 0x80 PUSH1 0x40 MSTORE CALLVALUE DUP1 ISZERO PUSH2 0xF JUMPI PUSH0 DUP1 REVERT JUMPDEST POP PUSH1 0x4 CALLDATASIZE LT PUSH2 0x29 JUMPI PUSH0 CALLDATALOAD PUSH1 0xE0 SHR DUP1 PUSH4 0xEB34CD3 EQ PUSH2 0x2D JUMPI JUMPDEST PUSH0 DUP1 REVERT JUMPDEST PUSH2 0x47 PUSH1 0x4 DUP1 CALLDATASIZE SUB DUP2 ADD SWAP1 PUSH2 0x42 SWAP2 SWAP1 PUSH2 0x1B0 JUMP JUMPDEST PUSH2 0x5F JUMP JUMPDEST PUSH1 0x40 MLOAD PUSH2 0x56 SWAP4 SWAP3 SWAP2 SWAP1 PUSH2 0x2C9 JUMP JUMPDEST PUSH1 0x40 MLOAD DUP1 SWAP2 SUB SWAP1 RETURN JUMPDEST PUSH0 PUSH1 0x60 PUSH0 DUP1 GAS SWAP1 POP DUP7 PUSH20 0xFFFFFFFFFFFFFFFFFFFFFFFFFFFFFFFFFFFFFFFF AND DUP7 DUP7 PUSH1 0x40 MLOAD PUSH2 0x8E SWAP3 SWAP2 SWAP1 PUSH2 0x341 JUMP JUMPDEST PUSH0 PUSH1 0x40 MLOAD DUP1 DUP4 SUB DUP2 PUSH0 DUP7 GAS CALL SWAP2 POP POP RETURNDATASIZE DUP1 PUSH0 DUP2 EQ PUSH2 0xC7 JUMPI PUSH1 0x40 MLOAD SWAP2 POP PUSH1 0x1F NOT PUSH1 0x3F RETURNDATASIZE ADD AND DUP3 ADD PUSH1 0x40 MSTORE RETURNDATASIZE DUP3 MSTORE RETURNDATASIZE PUSH0 PUSH1 0x20 DUP5 ADD RETURNDATACOPY PUSH2 0xCC JUMP JUMPDEST PUSH1 0x60 SWAP2 POP JUMPDEST POP DUP1 SWAP5 POP DUP2 SWAP6 POP POP POP GAS DUP2 PUSH2 0xE1 SWAP2 SWAP1 PUSH2 0x386 JUMP JUMPDEST SWAP2 POP POP SWAP4 POP SWAP4 POP SWAP4 SWAP1 POP JUMP JUMPDEST PUSH0 DUP1 REVERT JUMPDEST PUSH0 DUP1 REVERT JUMPDEST PUSH0 PUSH20 0xFFFFFFFFFFFFFFFFFFFFFFFFFFFFFFFFFFFFFFFF DUP3 AND SWAP1 POP SWAP2 SWAP1 POP JUMP JUMPDEST PUSH0 PUSH2 0x11E DUP3 PUSH2 0xF5 JUMP JUMPDEST SWAP1 POP SWAP2 SWAP1 POP JUMP JUMPDEST PUSH2 0x12E DUP2 PUSH2 0x114 JUMP JUMPDEST DUP2 EQ PUSH2 0x138 JUMPI PUSH0 DUP1 REVERT JUMPDEST POP JUMP JUMPDEST PUSH0 DUP2 CALLDATALOAD SWAP1 POP PUSH2 0x149 DUP2 PUSH2 0x125 JUMP JUMPDEST SWAP3 SWAP2 POP POP JUMP JUMPDEST PUSH0 DUP1 REVERT JUMPDEST PUSH0 DUP1 REVERT JUMPDEST PUSH0 DUP1 REVERT JUMPDEST PUSH0 DUP1 DUP4 PUSH1 0x1F DUP5 ADD SLT PUSH2 0x170 JUMPI PUSH2 0x16F PUSH2 0x14F JUMP JUMPDEST JUMPDEST DUP3 CALLDATALOAD SWAP1 POP PUSH8 0xFFFFFFFFFFFFFFFF DUP2 GT ISZERO PUSH2 0x18D JUMPI PUSH2 0x18C PUSH2 0x153 JUMP JUMPDEST JUMPDEST PUSH1 0x20 DUP4 ADD SWAP2 POP DUP4 PUSH1 0x1 DUP3 MUL DUP4 ADD GT ISZERO PUSH2 0x1A9 JUMPI PUSH2 0x1A8 PUSH2 0x157 JUMP JUMPDEST JUMPDEST SWAP3 POP SWAP3 SWAP1 POP JUMP JUMPDEST PUSH0 DUP1 PUSH0 PUSH1 0x40 DUP5 DUP7 SUB SLT ISZERO PUSH2 0x1C7 JUMPI PUSH2 0x1C6 PUSH2 0xED JUMP JUMPDEST JUMPDEST PUSH0 PUSH2 0x1D4 DUP7 DUP3 DUP8 ADD PUSH2 0x13B JUMP JUMPDEST SWAP4 POP POP PUSH1 0x20 DUP5 ADD CALLDATALOAD PUSH8 0xFFFFFFFFFFFFFFFF DUP2 GT ISZERO PUSH2 0x1F5 JUMPI PUSH2 0x1F4 PUSH2 0xF1 JUMP JUMPDEST JUMPDEST PUSH2 0x201 DUP7 DUP3 DUP8 ADD PUSH2 0x15B JUMP JUMPDEST SWAP3 POP SWAP3 POP POP SWAP3 POP SWAP3 POP SWAP3 JUMP JUMPDEST PUSH0 DUP2 ISZERO ISZERO SWAP1 POP SWAP2 SWAP1 POP JUMP JUMPDEST PUSH2 0x221 DUP2 PUSH2 0x20D JUMP JUMPDEST DUP3 MSTORE POP POP JUMP JUMPDEST PUSH0 DUP2 MLOAD SWAP1 POP SWAP2 SWAP1 POP JUMP JUMPDEST PUSH0 DUP3 DUP3 MSTORE PUSH1 0x20 DUP3 ADD SWAP1 POP SWAP3 SWAP2 POP POP JUMP JUMPDEST PUSH0 JUMPDEST DUP4 DUP2 LT ISZERO PUSH2 0x25E JUMPI DUP1 DUP3 ADD MLOAD DUP2 DUP5 ADD MSTORE PUSH1 0x20 DUP2 ADD SWAP1 POP PUSH2 0x243 JUMP JUMPDEST PUSH0 DUP5 DUP5 ADD MSTORE POP POP POP POP JUMP JUMPDEST PUSH0 PUSH1 0x1F NOT PUSH1 0x1F DUP4 ADD AND SWAP1 POP SWAP2 SWAP1 POP JUMP JUMPDEST PUSH0 PUSH2 0x283 DUP3 PUSH2 0x227 JUMP JUMPDEST PUSH2 0x28D DUP2 DUP6 PUSH2 0x231 JUMP JUMPDEST SWAP4 POP PUSH2 0x29D DUP2 DUP6 PUSH1 0x20 DUP7 ADD PUSH2 0x241 JUMP JUMPDEST PUSH2 0x2A6 DUP2 PUSH2 0x269 JUMP JUMPDEST DUP5 ADD SWAP2 POP POP SWAP3 SWAP2 POP POP JUMP JUMPDEST PUSH0 DUP2 SWAP1 POP SWAP2 SWAP1 POP JUMP JUMPDEST PUSH2 0x2C3 DUP2 PUSH2 0x2B1 JUMP JUMPDEST DUP3 MSTORE POP POP JUMP JUMPDEST PUSH0 PUSH1 0x60 DUP3 ADD SWAP1 POP PUSH2 0x2DC PUSH0 DUP4 ADD DUP7 PUSH2 0x218 JUMP JUMPDEST DUP2 DUP2 SUB PUSH1 0x20 DUP4 ADD MSTORE PUSH2 0x2EE DUP2 DUP6 PUSH2 0x279 JUMP JUMPDEST SWAP1 POP PUSH2 0x2FD PUSH1 0x40 DUP4 ADD DUP5 PUSH2 0x2BA JUMP JUMPDEST SWAP5 SWAP4 POP POP POP POP JUMP JUMPDEST PUSH0 DUP2 SWAP1 POP SWAP3 SWAP2 POP POP JUMP JUMPDEST DUP3 DUP2 DUP4 CALLDATACOPY PUSH0 DUP4 DUP4 ADD MSTORE POP POP POP JUMP JUMPDEST PUSH0 PUSH2 0x328 DUP4 DUP6 PUSH2 0x305 JUMP JUMPDEST SWAP4 POP PUSH2 0x335 DUP4 DUP6 DUP5 PUSH2 0x30F JUMP JUMPDEST DUP3 DUP5 ADD SWAP1 POP SWAP4 SWAP3 POP POP POP JUMP JUMPDEST PUSH0 PUSH2 0x34D DUP3 DUP5 DUP7 PUSH2 0x31D JUMP JUMPDEST SWAP2 POP DUP2 SWAP1 POP SWAP4 SWAP3 POP POP POP JUMP JUMPDEST PUSH32 0x4E487B7100000000000000000000000000000000000000000000000000000000 PUSH0 MSTORE PUSH1 0x11 PUSH1 0x4 MSTORE PUSH1 0x24 PUSH0 REVERT JUMPDEST PUSH0 PUSH2 0x390 DUP3 PUSH2 0x2B1 JUMP JUMPDEST SWAP2 POP PUSH2 0x39B DUP4 PUSH2 0x2B1 JUMP JUMPDEST SWAP3 POP DUP3 DUP3 SUB SWAP1 POP DUP2 DUP2 GT ISZERO PUSH2 0x3B3 JUMPI PUSH2 0x3B2 PUSH2 0x359 JUMP JUMPDEST JUMPDEST SWAP3 SWAP2 POP POP JUMP INVALID LOG2 PUSH5 0x6970667358 0x22 SLT KECCAK256 JUMPI PUSH14 0x41A0CC1C3304734A9910C348D2E0 0xDE DELEGATECALL 0x23 0xB3 COINBASE PUSH3 0x4DFEE4 0xC 0xB7 0xBD 0xC0 0xD5 0xC 0xA9 PUSH5 0x736F6C6343 STOP ADDMOD XOR STOP CALLER "
				},
				"gasEstimates": {
					"creation": {
						"codeDepositCost": "201400",
						"executionCost": "243",
						"totalCost": "201643"
					},
					"external": {
						"estimate(address,bytes)": "infinite"
					}
				},
				"methodIdentifiers": {
					"estimate(address,bytes)": "0eb34cd3"
				}
			},
			"storageLayout": {
				"storage": [],
				"types": null
			},
			"userdoc": {
				"kind": "user",
				"methods": {},
				"version": 1
			}
		}
	}
}